{
  "_format": "hh-sol-artifact-1",
  "contractName": "DSNS",
  "sourceName": "contracts/DSNS.sol",
  "abi": [
    {
      "inputs": [],
      "stateMutability": "nonpayable",
      "type": "constructor"
    },
    {
      "inputs": [
        {
          "internalType": "string",
          "name": "content",
          "type": "string"
        }
      ],
      "name": "createMessage",
      "outputs": [],
      "stateMutability": "nonpayable",
      "type": "function"
    },
    {
      "inputs": [
        {
          "internalType": "uint256",
          "name": "messageId",
          "type": "uint256"
        }
      ],
      "name": "likeMessage",
      "outputs": [],
      "stateMutability": "nonpayable",
      "type": "function"
    },
    {
      "inputs": [],
      "name": "listMessages",
      "outputs": [
        {
          "components": [
            {
              "internalType": "uint256",
              "name": "id",
              "type": "uint256"
            },
            {
              "internalType": "string",
              "name": "content",
              "type": "string"
            },
            {
              "internalType": "uint256",
              "name": "createdAt",
              "type": "uint256"
            },
            {
              "internalType": "address",
              "name": "owner",
              "type": "address"
            },
            {
              "internalType": "uint256",
              "name": "conutOfLikes",
              "type": "uint256"
            }
          ],
          "internalType": "struct DSNS.Message[]",
          "name": "",
          "type": "tuple[]"
        }
      ],
      "stateMutability": "view",
      "type": "function"
    }
  ],
  "bytecode": "0x608060405234801561001057600080fd5b50610acd806100206000396000f3fe608060405234801561001057600080fd5b50600436106100415760003560e01c8063198a2de91461004657806327a41b69146100625780634baeb4db14610080575b600080fd5b610060600480360381019061005b919061062b565b61009c565b005b61006a6101ab565b60405161007791906107eb565b60405180910390f35b61009a6004803603810190610095919061066c565b610310565b005b6000808154809291906100ae90610999565b919050555060006040518060a0016040528060005481526020018381526020014281526020013373ffffffffffffffffffffffffffffffffffffffff16815260200160008152509050600181908060018154018082558091505060019003906000526020600020906005020160009091909190915060008201518160000155602082015181600101908051906020019061014992919061050b565b506040820151816002015560608201518160030160006101000a81548173ffffffffffffffffffffffffffffffffffffffff021916908373ffffffffffffffffffffffffffffffffffffffff1602179055506080820151816004015550505050565b60606001805480602002602001604051908101604052809291908181526020016000905b8282101561030757838290600052602060002090600502016040518060a00160405290816000820154815260200160018201805461020c90610936565b80601f016020809104026020016040519081016040528092919081815260200182805461023890610936565b80156102855780601f1061025a57610100808354040283529160200191610285565b820191906000526020600020905b81548152906001019060200180831161026857829003601f168201915b50505050508152602001600282015481526020016003820160009054906101000a900473ffffffffffffffffffffffffffffffffffffffff1673ffffffffffffffffffffffffffffffffffffffff1673ffffffffffffffffffffffffffffffffffffffff168152602001600482015481525050815260200190600101906101cf565b50505050905090565b61031a33826103f9565b61032357600080fd5b6000600260003373ffffffffffffffffffffffffffffffffffffffff1673ffffffffffffffffffffffffffffffffffffffff1681526020019081526020016000209050808290806001815401808255809150506001900390600052602060002001600090919091909150556000600183815481106103ca577f4e487b7100000000000000000000000000000000000000000000000000000000600052603260045260246000fd5b906000526020600020906005020190508060040160008154809291906103ef90610999565b9190505550505050565b600080600260008573ffffffffffffffffffffffffffffffffffffffff1673ffffffffffffffffffffffffffffffffffffffff16815260200190815260200160002080548060200260200160405190810160405280929190818152602001828054801561048557602002820191906000526020600020905b815481526020019060010190808311610471575b5050505050905060005b81518110156104fe57838282815181106104d2577f4e487b7100000000000000000000000000000000000000000000000000000000600052603260045260246000fd5b602002602001015114156104eb57600192505050610505565b80806104f690610999565b91505061048f565b5060009150505b92915050565b82805461051790610936565b90600052602060002090601f0160209004810192826105395760008555610580565b82601f1061055257805160ff1916838001178555610580565b82800160010185558215610580579182015b8281111561057f578251825591602001919060010190610564565b5b50905061058d9190610591565b5090565b5b808211156105aa576000816000905550600101610592565b5090565b60006105c16105bc84610832565b61080d565b9050828152602081018484840111156105d957600080fd5b6105e48482856108f4565b509392505050565b600082601f8301126105fd57600080fd5b813561060d8482602086016105ae565b91505092915050565b60008135905061062581610a80565b92915050565b60006020828403121561063d57600080fd5b600082013567ffffffffffffffff81111561065757600080fd5b610663848285016105ec565b91505092915050565b60006020828403121561067e57600080fd5b600061068c84828501610616565b91505092915050565b60006106a18383610766565b905092915050565b6106b2816108b8565b82525050565b60006106c382610873565b6106cd8185610896565b9350836020820285016106df85610863565b8060005b8581101561071b57848403895281516106fc8582610695565b945061070783610889565b925060208a019950506001810190506106e3565b50829750879550505050505092915050565b60006107388261087e565b61074281856108a7565b9350610752818560208601610903565b61075b81610a6f565b840191505092915050565b600060a08301600083015161077e60008601826107dc565b5060208301518482036020860152610796828261072d565b91505060408301516107ab60408601826107dc565b5060608301516107be60608601826106a9565b5060808301516107d160808601826107dc565b508091505092915050565b6107e5816108ea565b82525050565b6000602082019050818103600083015261080581846106b8565b905092915050565b6000610817610828565b90506108238282610968565b919050565b6000604051905090565b600067ffffffffffffffff82111561084d5761084c610a40565b5b61085682610a6f565b9050602081019050919050565b6000819050602082019050919050565b600081519050919050565b600081519050919050565b6000602082019050919050565b600082825260208201905092915050565b600082825260208201905092915050565b60006108c3826108ca565b9050919050565b600073ffffffffffffffffffffffffffffffffffffffff82169050919050565b6000819050919050565b82818337600083830152505050565b60005b83811015610921578082015181840152602081019050610906565b83811115610930576000848401525b50505050565b6000600282049050600182168061094e57607f821691505b6020821081141561096257610961610a11565b5b50919050565b61097182610a6f565b810181811067ffffffffffffffff821117156109905761098f610a40565b5b80604052505050565b60006109a4826108ea565b91507fffffffffffffffffffffffffffffffffffffffffffffffffffffffffffffffff8214156109d7576109d66109e2565b5b600182019050919050565b7f4e487b7100000000000000000000000000000000000000000000000000000000600052601160045260246000fd5b7f4e487b7100000000000000000000000000000000000000000000000000000000600052602260045260246000fd5b7f4e487b7100000000000000000000000000000000000000000000000000000000600052604160045260246000fd5b6000601f19601f8301169050919050565b610a89816108ea565b8114610a9457600080fd5b5056fea2646970667358221220028c03312c9e28364beead2645861154142497b90c46169bd9dd3a04d3f0adff64736f6c63430008040033",
  "linkReferences": {},
  "deployedLinkReferences": {}
}